{
  "_format": "hh-sol-artifact-1",
  "contractName": "Web3IDEmblems",
  "sourceName": "contracts/Web3IDEmblems.sol",
  "abi": [
    {
      "inputs": [],
      "stateMutability": "nonpayable",
      "type": "constructor"
    },
    {
      "anonymous": false,
      "inputs": [
        {
          "indexed": true,
          "internalType": "address",
          "name": "admin",
          "type": "address"
        },
        {
          "indexed": false,
          "internalType": "uint256",
          "name": "amount",
          "type": "uint256"
        }
      ],
      "name": "BalanceWithdrawn",
      "type": "event"
    },
    {
      "anonymous": false,
      "inputs": [
        {
          "indexed": true,
          "internalType": "address",
          "name": "wallet",
          "type": "address"
        },
        {
          "indexed": false,
          "internalType": "bytes32",
          "name": "attestationUID",
          "type": "bytes32"
        }
      ],
      "name": "EASAttestationStored",
      "type": "event"
    },
    {
      "anonymous": false,
      "inputs": [
        {
          "indexed": false,
          "internalType": "uint256",
          "name": "newRegistrationFee",
          "type": "uint256"
        },
        {
          "indexed": false,
          "internalType": "uint256",
          "name": "newRenewalFee",
          "type": "uint256"
        }
      ],
      "name": "FeesUpdated",
      "type": "event"
    },
    {
      "anonymous": false,
      "inputs": [
        {
          "indexed": true,
          "internalType": "address",
          "name": "wallet",
          "type": "address"
        },
        {
          "indexed": false,
          "internalType": "uint256",
          "name": "expirationDate",
          "type": "uint256"
        }
      ],
      "name": "WalletRegistered",
      "type": "event"
    },
    {
      "anonymous": false,
      "inputs": [
        {
          "indexed": true,
          "internalType": "address",
          "name": "wallet",
          "type": "address"
        },
        {
          "indexed": false,
          "internalType": "uint256",
          "name": "newExpirationDate",
          "type": "uint256"
        }
      ],
      "name": "WalletRenewed",
      "type": "event"
    },
    {
      "anonymous": false,
      "inputs": [
        {
          "indexed": true,
          "internalType": "address",
          "name": "wallet",
          "type": "address"
        },
        {
          "indexed": false,
          "internalType": "uint8",
          "name": "verificationLevel",
          "type": "uint8"
        }
      ],
      "name": "WalletVerified",
      "type": "event"
    },
    {
      "inputs": [],
      "name": "admin",
      "outputs": [
        {
          "internalType": "address",
          "name": "",
          "type": "address"
        }
      ],
      "stateMutability": "view",
      "type": "function"
    },
    {
      "inputs": [
        {
          "internalType": "address",
          "name": "walletAddress",
          "type": "address"
        }
      ],
      "name": "getWalletDetails",
      "outputs": [
        {
          "components": [
            {
              "internalType": "uint256",
              "name": "registrationDate",
              "type": "uint256"
            },
            {
              "internalType": "uint256",
              "name": "expirationDate",
              "type": "uint256"
            },
            {
              "internalType": "uint8",
              "name": "verificationLevel",
              "type": "uint8"
            },
            {
              "internalType": "bytes32",
              "name": "worldcoinProof",
              "type": "bytes32"
            },
            {
              "internalType": "bytes32",
              "name": "easAttestation",
              "type": "bytes32"
            }
          ],
          "internalType": "struct Web3IDEmblems.Wallet",
          "name": "",
          "type": "tuple"
        }
      ],
      "stateMutability": "view",
      "type": "function"
    },
    {
      "inputs": [],
      "name": "registerWallet",
      "outputs": [],
      "stateMutability": "payable",
      "type": "function"
    },
    {
      "inputs": [],
      "name": "registrationDuration",
      "outputs": [
        {
          "internalType": "uint256",
          "name": "",
          "type": "uint256"
        }
      ],
      "stateMutability": "view",
      "type": "function"
    },
    {
      "inputs": [],
      "name": "registrationFee",
      "outputs": [
        {
          "internalType": "uint256",
          "name": "",
          "type": "uint256"
        }
      ],
      "stateMutability": "view",
      "type": "function"
    },
    {
      "inputs": [],
      "name": "renewWallet",
      "outputs": [],
      "stateMutability": "payable",
      "type": "function"
    },
    {
      "inputs": [],
      "name": "renewalDuration",
      "outputs": [
        {
          "internalType": "uint256",
          "name": "",
          "type": "uint256"
        }
      ],
      "stateMutability": "view",
      "type": "function"
    },
    {
      "inputs": [],
      "name": "renewalFee",
      "outputs": [
        {
          "internalType": "uint256",
          "name": "",
          "type": "uint256"
        }
      ],
      "stateMutability": "view",
      "type": "function"
    },
    {
      "inputs": [
        {
          "internalType": "bytes32",
          "name": "attestationUID",
          "type": "bytes32"
        }
      ],
      "name": "storeEASAttestation",
      "outputs": [],
      "stateMutability": "nonpayable",
      "type": "function"
    },
    {
      "inputs": [
        {
          "internalType": "uint256",
          "name": "newRegistrationFee",
          "type": "uint256"
        },
        {
          "internalType": "uint256",
          "name": "newRenewalFee",
          "type": "uint256"
        }
      ],
      "name": "updateFees",
      "outputs": [],
      "stateMutability": "nonpayable",
      "type": "function"
    },
    {
      "inputs": [
        {
          "internalType": "uint8",
          "name": "newLevel",
          "type": "uint8"
        }
      ],
      "name": "updateVerificationLevel",
      "outputs": [],
      "stateMutability": "nonpayable",
      "type": "function"
    },
    {
      "inputs": [
        {
          "internalType": "address",
          "name": "",
          "type": "address"
        }
      ],
      "name": "wallets",
      "outputs": [
        {
          "internalType": "uint256",
          "name": "registrationDate",
          "type": "uint256"
        },
        {
          "internalType": "uint256",
          "name": "expirationDate",
          "type": "uint256"
        },
        {
          "internalType": "uint8",
          "name": "verificationLevel",
          "type": "uint8"
        },
        {
          "internalType": "bytes32",
          "name": "worldcoinProof",
          "type": "bytes32"
        },
        {
          "internalType": "bytes32",
          "name": "easAttestation",
          "type": "bytes32"
        }
      ],
      "stateMutability": "view",
      "type": "function"
    },
    {
      "inputs": [],
      "name": "withdrawBalance",
      "outputs": [],
      "stateMutability": "nonpayable",
      "type": "function"
    },
    {
      "stateMutability": "payable",
      "type": "receive"
    }
  ],
  "bytecode": "0x60806040526127106002556127106003556301e133806004556303c2670060055534801561002c57600080fd5b50600180546001600160a01b031916331790556109f88061004e6000396000f3fe6080604052600436106100c65760003560e01c80636db794371161007f5780638cae45d2116100595780638cae45d21461020c578063de90d111146102f0578063f590847214610306578063f851a4401461032657600080fd5b80636db794371461014e5780637b8250ab1461016e57806389b08f111461018e57600080fd5b8063080b301e146100d25780631269db31146100fb57806314c44e09146101115780631ebf59971461012757806333ff495a146101315780635fd8c7101461013957600080fd5b366100cd57005b600080fd5b3480156100de57600080fd5b506100e860035481565b6040519081526020015b60405180910390f35b34801561010757600080fd5b506100e860055481565b34801561011d57600080fd5b506100e860025481565b61012f61035e565b005b61012f61047b565b34801561014557600080fd5b5061012f6105ac565b34801561015a57600080fd5b5061012f6101693660046108d6565b6106f1565b34801561017a57600080fd5b5061012f6101893660046108f8565b610762565b34801561019a57600080fd5b506101dc6101a9366004610911565b600060208190529081526040902080546001820154600283015460038401546004909401549293919260ff909116919085565b60408051958652602086019490945260ff909216928401929092526060830191909152608082015260a0016100f2565b34801561021857600080fd5b506102ab610227366004610911565b6040805160a081018252600080825260208201819052918101829052606081018290526080810191909152506001600160a01b031660009081526020818152604091829020825160a08101845281548152600182015492810192909252600281015460ff169282019290925260038201546060820152600490910154608082015290565b6040516100f29190600060a082019050825182526020830151602083015260ff6040840151166040830152606083015160608301526080830151608083015292915050565b3480156102fc57600080fd5b506100e860045481565b34801561031257600080fd5b5061012f610321366004610941565b610807565b34801561033257600080fd5b50600154610346906001600160a01b031681565b6040516001600160a01b0390911681526020016100f2565b3360008181526020819052604090206001015442106103c45760405162461bcd60e51b815260206004820181905260248201527f57616c6c6574206e6f742072656769737465726564206f72206578706972656460448201526064015b60405180910390fd5b600354341461040d5760405162461bcd60e51b8152602060048201526015602482015274496e636f72726563742072656e6577616c2066656560581b60448201526064016103bb565b33600090815260208190526040812060055460018201805492939192909190610437908490610964565b9091555050600181015460405190815233907f0b6e79c0934f18b2c26e0bb74cd580b35ce162e779acc87a73b0de2c7fc754a8906020015b60405180910390a25050565b60025434146104cc5760405162461bcd60e51b815260206004820152601a60248201527f496e636f727265637420726567697374726174696f6e2066656500000000000060448201526064016103bb565b33600090815260208190526040902060010154421161053d5760405162461bcd60e51b815260206004820152602760248201527f57616c6c657420616c726561647920726567697374657265642c20706c656173604482015266652072656e657760c81b60648201526084016103bb565b3360009081526020819052604090204280825560045461055c91610964565b600182810182905560028301805460ff1916909117905560405190815233907f5b67f804e323419e52b5705600ce2a2921abc81f923b72e1d53b0b1cda8eedd3906020015b60405180910390a250565b6001546001600160a01b031633146105d65760405162461bcd60e51b81526004016103bb9061098b565b478061061d5760405162461bcd60e51b81526020600482015260166024820152754e6f2062616c616e636520746f20776974686472617760501b60448201526064016103bb565b6001546040516000916001600160a01b03169083908381818185875af1925050503d806000811461066a576040519150601f19603f3d011682016040523d82523d6000602084013e61066f565b606091505b50509050806106b25760405162461bcd60e51b815260206004820152600f60248201526e151c985b9cd9995c8819985a5b1959608a1b60448201526064016103bb565b6001546040518381526001600160a01b03909116907fddc398b321237a8d40ac914388309c2f52a08c134e4dc4ce61e32f57cb7d80f19060200161046f565b6001546001600160a01b0316331461071b5760405162461bcd60e51b81526004016103bb9061098b565b6002829055600381905560408051838152602081018390527f5c6323bf1c2d7aaea2c091a4751c1c87af7f2864650c336507a77d0557af37a1910160405180910390a15050565b3360008181526020819052604090206001015442106107c35760405162461bcd60e51b815260206004820181905260248201527f57616c6c6574206e6f742072656769737465726564206f72206578706972656460448201526064016103bb565b336000818152602081815260409182902060040185905590518481527f14f369e8aa6af2421d7e6380285c1446e44abb6c4d596bf2639d086573ff6a7b910161046f565b6001546001600160a01b031633146108315760405162461bcd60e51b81526004016103bb9061098b565b600a8160ff1611156108855760405162461bcd60e51b815260206004820152601a60248201527f496e76616c696420766572696669636174696f6e206c6576656c00000000000060448201526064016103bb565b3360008181526020818152604091829020600201805460ff191660ff861690811790915591519182527f615f69c4091a9807be94c6e35c75811729907e502182d54d6b662f9f5f50299991016105a1565b600080604083850312156108e957600080fd5b50508035926020909101359150565b60006020828403121561090a57600080fd5b5035919050565b60006020828403121561092357600080fd5b81356001600160a01b038116811461093a57600080fd5b9392505050565b60006020828403121561095357600080fd5b813560ff8116811461093a57600080fd5b8082018082111561098557634e487b7160e01b600052601160045260246000fd5b92915050565b60208082526017908201527f43616c6c6572206973206e6f74207468652061646d696e00000000000000000060408201526060019056fea2646970667358221220afe930387bbcc8aa700d4f92e9463945d0b69b43879d698369ead4964709d1de64736f6c63430008140033",
  "linkReferences": {},
  "deployedLinkReferences": {}
}