{
  "_format": "hh-sol-artifact-1",
  "contractName": "Web3IDEmblems",
  "sourceName": "contracts/Web3IDEmblems.sol",
  "abi": [
    {
      "inputs": [],
      "stateMutability": "nonpayable",
      "type": "constructor"
    },
    {
      "anonymous": false,
      "inputs": [
        {
          "indexed": true,
          "internalType": "address",
          "name": "admin",
          "type": "address"
        },
        {
          "indexed": false,
          "internalType": "uint256",
          "name": "amount",
          "type": "uint256"
        }
      ],
      "name": "BalanceWithdrawn",
      "type": "event"
    },
    {
      "anonymous": false,
      "inputs": [
        {
          "indexed": false,
          "internalType": "uint256",
          "name": "newRegistrationFee",
          "type": "uint256"
        },
        {
          "indexed": false,
          "internalType": "uint256",
          "name": "newRenewalFee",
          "type": "uint256"
        }
      ],
      "name": "FeesUpdated",
      "type": "event"
    },
    {
      "anonymous": false,
      "inputs": [
        {
          "indexed": true,
          "internalType": "address",
          "name": "wallet",
          "type": "address"
        },
        {
          "indexed": false,
          "internalType": "uint256",
          "name": "expirationDate",
          "type": "uint256"
        }
      ],
      "name": "WalletRegistered",
      "type": "event"
    },
    {
      "anonymous": false,
      "inputs": [
        {
          "indexed": true,
          "internalType": "address",
          "name": "wallet",
          "type": "address"
        },
        {
          "indexed": false,
          "internalType": "uint256",
          "name": "newExpirationDate",
          "type": "uint256"
        }
      ],
      "name": "WalletRenewed",
      "type": "event"
    },
    {
      "anonymous": false,
      "inputs": [
        {
          "indexed": true,
          "internalType": "address",
          "name": "wallet",
          "type": "address"
        },
        {
          "indexed": false,
          "internalType": "uint8",
          "name": "verificationLevel",
          "type": "uint8"
        }
      ],
      "name": "WalletVerified",
      "type": "event"
    },
    {
      "inputs": [],
      "name": "admin",
      "outputs": [
        {
          "internalType": "address",
          "name": "",
          "type": "address"
        }
      ],
      "stateMutability": "view",
      "type": "function"
    },
    {
      "inputs": [
        {
          "internalType": "address",
          "name": "walletAddress",
          "type": "address"
        }
      ],
      "name": "getVerificationLevel",
      "outputs": [
        {
          "internalType": "uint8",
          "name": "",
          "type": "uint8"
        }
      ],
      "stateMutability": "view",
      "type": "function"
    },
    {
      "inputs": [
        {
          "internalType": "address",
          "name": "walletAddress",
          "type": "address"
        }
      ],
      "name": "isWalletRegistered",
      "outputs": [
        {
          "internalType": "bool",
          "name": "",
          "type": "bool"
        }
      ],
      "stateMutability": "view",
      "type": "function"
    },
    {
      "inputs": [],
      "name": "registerWallet",
      "outputs": [],
      "stateMutability": "payable",
      "type": "function"
    },
    {
      "inputs": [],
      "name": "registrationDuration",
      "outputs": [
        {
          "internalType": "uint256",
          "name": "",
          "type": "uint256"
        }
      ],
      "stateMutability": "view",
      "type": "function"
    },
    {
      "inputs": [],
      "name": "registrationFee",
      "outputs": [
        {
          "internalType": "uint256",
          "name": "",
          "type": "uint256"
        }
      ],
      "stateMutability": "view",
      "type": "function"
    },
    {
      "inputs": [],
      "name": "renewWallet",
      "outputs": [],
      "stateMutability": "payable",
      "type": "function"
    },
    {
      "inputs": [],
      "name": "renewalDuration",
      "outputs": [
        {
          "internalType": "uint256",
          "name": "",
          "type": "uint256"
        }
      ],
      "stateMutability": "view",
      "type": "function"
    },
    {
      "inputs": [],
      "name": "renewalFee",
      "outputs": [
        {
          "internalType": "uint256",
          "name": "",
          "type": "uint256"
        }
      ],
      "stateMutability": "view",
      "type": "function"
    },
    {
      "inputs": [
        {
          "internalType": "uint256",
          "name": "newRegistrationFee",
          "type": "uint256"
        },
        {
          "internalType": "uint256",
          "name": "newRenewalFee",
          "type": "uint256"
        }
      ],
      "name": "updateFees",
      "outputs": [],
      "stateMutability": "nonpayable",
      "type": "function"
    },
    {
      "inputs": [
        {
          "internalType": "address",
          "name": "walletAddress",
          "type": "address"
        },
        {
          "internalType": "uint8",
          "name": "newLevel",
          "type": "uint8"
        }
      ],
      "name": "updateVerificationLevel",
      "outputs": [],
      "stateMutability": "nonpayable",
      "type": "function"
    },
    {
      "inputs": [
        {
          "internalType": "address",
          "name": "",
          "type": "address"
        }
      ],
      "name": "wallets",
      "outputs": [
        {
          "internalType": "uint256",
          "name": "registrationDate",
          "type": "uint256"
        },
        {
          "internalType": "uint256",
          "name": "expirationDate",
          "type": "uint256"
        },
        {
          "internalType": "uint8",
          "name": "verificationLevel",
          "type": "uint8"
        }
      ],
      "stateMutability": "view",
      "type": "function"
    },
    {
      "inputs": [],
      "name": "withdrawBalance",
      "outputs": [],
      "stateMutability": "nonpayable",
      "type": "function"
    },
    {
      "stateMutability": "payable",
      "type": "receive"
    }
  ],
  "bytecode": "0x60806040526127106002556127106003556301e133806004556303c2670060055534801561002c57600080fd5b50600180546001600160a01b0319163317905561092b8061004e6000396000f3fe6080604052600436106100c65760003560e01c80634f74222d1161007f5780637f247e49116100595780637f247e49146101c057806389b08f111461020b578063de90d11114610268578063f851a4401461027e57600080fd5b80634f74222d1461016b5780635fd8c7101461018b5780636db79437146101a057600080fd5b8063080b301e146100d25780631269db31146100fb57806314c44e09146101115780631ebf59971461012757806320e215351461013157806333ff495a1461016357600080fd5b366100cd57005b600080fd5b3480156100de57600080fd5b506100e860035481565b6040519081526020015b60405180910390f35b34801561010757600080fd5b506100e860055481565b34801561011d57600080fd5b506100e860025481565b61012f6102b6565b005b34801561013d57600080fd5b5061015161014c366004610816565b6103d3565b60405160ff90911681526020016100f2565b61012f61041f565b34801561017757600080fd5b5061012f610186366004610838565b61054f565b34801561019757600080fd5b5061012f61063d565b3480156101ac57600080fd5b5061012f6101bb366004610875565b610789565b3480156101cc57600080fd5b506101fb6101db366004610816565b6001600160a01b0316600090815260208190526040902060010154421090565b60405190151581526020016100f2565b34801561021757600080fd5b5061024a610226366004610816565b60006020819052908152604090208054600182015460029092015490919060ff1683565b60408051938452602084019290925260ff16908201526060016100f2565b34801561027457600080fd5b506100e860045481565b34801561028a57600080fd5b5060015461029e906001600160a01b031681565b6040516001600160a01b0390911681526020016100f2565b33600081815260208190526040902060010154421061031c5760405162461bcd60e51b815260206004820181905260248201527f57616c6c6574206e6f742072656769737465726564206f72206578706972656460448201526064015b60405180910390fd5b60035434146103655760405162461bcd60e51b8152602060048201526015602482015274496e636f72726563742072656e6577616c2066656560581b6044820152606401610313565b3360009081526020819052604081206005546001820180549293919290919061038f908490610897565b9091555050600181015460405190815233907f0b6e79c0934f18b2c26e0bb74cd580b35ce162e779acc87a73b0de2c7fc754a8906020015b60405180910390a25050565b6001600160a01b03811660009081526020819052604081206001015442106103fd57506000919050565b506001600160a01b031660009081526020819052604090206002015460ff1690565b60025434146104705760405162461bcd60e51b815260206004820152601a60248201527f496e636f727265637420726567697374726174696f6e206665650000000000006044820152606401610313565b3360009081526020819052604090206001015442116104e15760405162461bcd60e51b815260206004820152602760248201527f57616c6c657420616c726561647920726567697374657265642c20706c656173604482015266652072656e657760c81b6064820152608401610313565b3360009081526020819052604090204280825560045461050091610897565b600182810182905560028301805460ff1916909117905560405190815233907f5b67f804e323419e52b5705600ce2a2921abc81f923b72e1d53b0b1cda8eedd39060200160405180910390a250565b6001546001600160a01b031633146105795760405162461bcd60e51b8152600401610313906108be565b6001600160a01b03821660009081526020819052604090206001015442106105e35760405162461bcd60e51b815260206004820181905260248201527f57616c6c6574206e6f742072656769737465726564206f7220657870697265646044820152606401610313565b6001600160a01b03821660008181526020818152604091829020600201805460ff191660ff861690811790915591519182527f615f69c4091a9807be94c6e35c75811729907e502182d54d6b662f9f5f50299991016103c7565b6001546001600160a01b031633146106675760405162461bcd60e51b8152600401610313906108be565b47806106ae5760405162461bcd60e51b81526020600482015260166024820152754e6f2062616c616e636520746f20776974686472617760501b6044820152606401610313565b6001546040518281526001600160a01b03909116907fddc398b321237a8d40ac914388309c2f52a08c134e4dc4ce61e32f57cb7d80f19060200160405180910390a26001546040516000916001600160a01b03169083908381818185875af1925050503d806000811461073d576040519150601f19603f3d011682016040523d82523d6000602084013e610742565b606091505b50509050806107855760405162461bcd60e51b815260206004820152600f60248201526e151c985b9cd9995c8819985a5b1959608a1b6044820152606401610313565b5050565b6001546001600160a01b031633146107b35760405162461bcd60e51b8152600401610313906108be565b6002829055600381905560408051838152602081018390527f5c6323bf1c2d7aaea2c091a4751c1c87af7f2864650c336507a77d0557af37a1910160405180910390a15050565b80356001600160a01b038116811461081157600080fd5b919050565b60006020828403121561082857600080fd5b610831826107fa565b9392505050565b6000806040838503121561084b57600080fd5b610854836107fa565b9150602083013560ff8116811461086a57600080fd5b809150509250929050565b6000806040838503121561088857600080fd5b50508035926020909101359150565b808201808211156108b857634e487b7160e01b600052601160045260246000fd5b92915050565b60208082526017908201527f43616c6c6572206973206e6f74207468652061646d696e00000000000000000060408201526060019056fea264697066735822122088f081593f19e985506bf513ca1ced8b50283011e01e5ff09ae50b0782fa108664736f6c63430008180033",
  "linkReferences": {},
  "deployedLinkReferences": {}
}